{
    "contractName": "KeySeaV1",
    "abi": [
        {
            "inputs": [],
            "stateMutability": "nonpayable",
            "type": "constructor"
        },
        {
            "anonymous": false,
            "inputs": [
                {
                    "indexed": false,
                    "internalType": "address",
                    "name": "trader",
                    "type": "address"
                },
                {
                    "indexed": false,
                    "internalType": "address",
                    "name": "fanShareSubject",
                    "type": "address"
                },
                {
                    "indexed": false,
                    "internalType": "bool",
                    "name": "isBuy",
                    "type": "bool"
                },
                {
                    "indexed": false,
                    "internalType": "uint256",
                    "name": "shareAmount",
                    "type": "uint256"
                },
                {
                    "indexed": false,
                    "internalType": "uint256",
                    "name": "ethAmount",
                    "type": "uint256"
                },
                {
                    "indexed": false,
                    "internalType": "uint256",
                    "name": "protocolEthAmount",
                    "type": "uint256"
                },
                {
                    "indexed": false,
                    "internalType": "uint256",
                    "name": "supply",
                    "type": "uint256"
                }
            ],
            "name": "FanTrade",
            "type": "event"
        },
        {
            "anonymous": false,
            "inputs": [
                {
                    "indexed": true,
                    "internalType": "address",
                    "name": "previousOwner",
                    "type": "address"
                },
                {
                    "indexed": true,
                    "internalType": "address",
                    "name": "newOwner",
                    "type": "address"
                }
            ],
            "name": "OwnershipTransferred",
            "type": "event"
        },
        {
            "anonymous": false,
            "inputs": [
                {
                    "indexed": false,
                    "internalType": "address",
                    "name": "trader",
                    "type": "address"
                },
                {
                    "indexed": false,
                    "internalType": "address",
                    "name": "subject",
                    "type": "address"
                },
                {
                    "indexed": false,
                    "internalType": "bool",
                    "name": "isBuy",
                    "type": "bool"
                },
                {
                    "indexed": false,
                    "internalType": "uint256",
                    "name": "shareAmount",
                    "type": "uint256"
                },
                {
                    "indexed": false,
                    "internalType": "uint256",
                    "name": "ethAmount",
                    "type": "uint256"
                },
                {
                    "indexed": false,
                    "internalType": "uint256",
                    "name": "protocolEthAmount",
                    "type": "uint256"
                },
                {
                    "indexed": false,
                    "internalType": "uint256",
                    "name": "subjectEthAmount",
                    "type": "uint256"
                },
                {
                    "indexed": false,
                    "internalType": "uint256",
                    "name": "supply",
                    "type": "uint256"
                }
            ],
            "name": "Trade",
            "type": "event"
        },
        {
            "inputs": [
                {
                    "internalType": "address",
                    "name": "fanShareSubject",
                    "type": "address"
                },
                {
                    "internalType": "uint256",
                    "name": "amount",
                    "type": "uint256"
                }
            ],
            "name": "buyFanShares",
            "outputs": [],
            "stateMutability": "payable",
            "type": "function"
        },
        {
            "inputs": [
                {
                    "internalType": "address",
                    "name": "sharesSubject",
                    "type": "address"
                },
                {
                    "internalType": "uint256",
                    "name": "amount",
                    "type": "uint256"
                }
            ],
            "name": "buyShares",
            "outputs": [],
            "stateMutability": "payable",
            "type": "function"
        },
        {
            "inputs": [
                {
                    "internalType": "address",
                    "name": "",
                    "type": "address"
                },
                {
                    "internalType": "address",
                    "name": "",
                    "type": "address"
                }
            ],
            "name": "fanSharesBalance",
            "outputs": [
                {
                    "internalType": "uint256",
                    "name": "",
                    "type": "uint256"
                }
            ],
            "stateMutability": "view",
            "type": "function"
        },
        {
            "inputs": [
                {
                    "internalType": "address",
                    "name": "",
                    "type": "address"
                }
            ],
            "name": "fanSharesSupply",
            "outputs": [
                {
                    "internalType": "uint256",
                    "name": "",
                    "type": "uint256"
                }
            ],
            "stateMutability": "view",
            "type": "function"
        },
        {
            "inputs": [
                {
                    "internalType": "address",
                    "name": "sharesSubject",
                    "type": "address"
                },
                {
                    "internalType": "uint256",
                    "name": "amount",
                    "type": "uint256"
                }
            ],
            "name": "getBuyPrice",
            "outputs": [
                {
                    "internalType": "uint256",
                    "name": "",
                    "type": "uint256"
                }
            ],
            "stateMutability": "view",
            "type": "function"
        },
        {
            "inputs": [
                {
                    "internalType": "address",
                    "name": "sharesSubject",
                    "type": "address"
                },
                {
                    "internalType": "uint256",
                    "name": "amount",
                    "type": "uint256"
                }
            ],
            "name": "getBuyPriceAfterFee",
            "outputs": [
                {
                    "internalType": "uint256",
                    "name": "",
                    "type": "uint256"
                }
            ],
            "stateMutability": "view",
            "type": "function"
        },
        {
            "inputs": [
                {
                    "internalType": "address",
                    "name": "fanShareSubject",
                    "type": "address"
                },
                {
                    "internalType": "uint256",
                    "name": "amount",
                    "type": "uint256"
                }
            ],
            "name": "getFanBuyPrice",
            "outputs": [
                {
                    "internalType": "uint256",
                    "name": "",
                    "type": "uint256"
                }
            ],
            "stateMutability": "view",
            "type": "function"
        },
        {
            "inputs": [
                {
                    "internalType": "address",
                    "name": "fanShareSubject",
                    "type": "address"
                },
                {
                    "internalType": "uint256",
                    "name": "amount",
                    "type": "uint256"
                }
            ],
            "name": "getFanSellPrice",
            "outputs": [
                {
                    "internalType": "uint256",
                    "name": "",
                    "type": "uint256"
                }
            ],
            "stateMutability": "view",
            "type": "function"
        },
        {
            "inputs": [
                {
                    "internalType": "uint256",
                    "name": "supply",
                    "type": "uint256"
                },
                {
                    "internalType": "uint256",
                    "name": "amount",
                    "type": "uint256"
                }
            ],
            "name": "getPrice",
            "outputs": [
                {
                    "internalType": "uint256",
                    "name": "",
                    "type": "uint256"
                }
            ],
            "stateMutability": "pure",
            "type": "function"
        },
        {
            "inputs": [
                {
                    "internalType": "address",
                    "name": "sharesSubject",
                    "type": "address"
                },
                {
                    "internalType": "uint256",
                    "name": "amount",
                    "type": "uint256"
                }
            ],
            "name": "getSellPrice",
            "outputs": [
                {
                    "internalType": "uint256",
                    "name": "",
                    "type": "uint256"
                }
            ],
            "stateMutability": "view",
            "type": "function"
        },
        {
            "inputs": [
                {
                    "internalType": "address",
                    "name": "sharesSubject",
                    "type": "address"
                },
                {
                    "internalType": "uint256",
                    "name": "amount",
                    "type": "uint256"
                }
            ],
            "name": "getSellPriceAfterFee",
            "outputs": [
                {
                    "internalType": "uint256",
                    "name": "",
                    "type": "uint256"
                }
            ],
            "stateMutability": "view",
            "type": "function"
        },
        {
            "inputs": [],
            "name": "owner",
            "outputs": [
                {
                    "internalType": "address",
                    "name": "",
                    "type": "address"
                }
            ],
            "stateMutability": "view",
            "type": "function"
        },
        {
            "inputs": [],
            "name": "protocolFeeDestination",
            "outputs": [
                {
                    "internalType": "address",
                    "name": "",
                    "type": "address"
                }
            ],
            "stateMutability": "view",
            "type": "function"
        },
        {
            "inputs": [],
            "name": "protocolFeePercent",
            "outputs": [
                {
                    "internalType": "uint256",
                    "name": "",
                    "type": "uint256"
                }
            ],
            "stateMutability": "view",
            "type": "function"
        },
        {
            "inputs": [],
            "name": "renounceOwnership",
            "outputs": [],
            "stateMutability": "nonpayable",
            "type": "function"
        },
        {
            "inputs": [
                {
                    "internalType": "address",
                    "name": "fanShareSubject",
                    "type": "address"
                },
                {
                    "internalType": "uint256",
                    "name": "amount",
                    "type": "uint256"
                }
            ],
            "name": "sellFanShares",
            "outputs": [],
            "stateMutability": "nonpayable",
            "type": "function"
        },
        {
            "inputs": [
                {
                    "internalType": "address",
                    "name": "sharesSubject",
                    "type": "address"
                },
                {
                    "internalType": "uint256",
                    "name": "amount",
                    "type": "uint256"
                }
            ],
            "name": "sellShares",
            "outputs": [],
            "stateMutability": "nonpayable",
            "type": "function"
        },
        {
            "inputs": [
                {
                    "internalType": "address",
                    "name": "_feeDestination",
                    "type": "address"
                }
            ],
            "name": "setFeeDestination",
            "outputs": [],
            "stateMutability": "nonpayable",
            "type": "function"
        },
        {
            "inputs": [
                {
                    "internalType": "uint256",
                    "name": "_feePercent",
                    "type": "uint256"
                }
            ],
            "name": "setProtocolFeePercent",
            "outputs": [],
            "stateMutability": "nonpayable",
            "type": "function"
        },
        {
            "inputs": [
                {
                    "internalType": "uint256",
                    "name": "_feePercent",
                    "type": "uint256"
                }
            ],
            "name": "setSubjectFeePercent",
            "outputs": [],
            "stateMutability": "nonpayable",
            "type": "function"
        },
        {
            "inputs": [
                {
                    "internalType": "address",
                    "name": "",
                    "type": "address"
                },
                {
                    "internalType": "address",
                    "name": "",
                    "type": "address"
                }
            ],
            "name": "sharesBalance",
            "outputs": [
                {
                    "internalType": "uint256",
                    "name": "",
                    "type": "uint256"
                }
            ],
            "stateMutability": "view",
            "type": "function"
        },
        {
            "inputs": [
                {
                    "internalType": "address",
                    "name": "",
                    "type": "address"
                }
            ],
            "name": "sharesSupply",
            "outputs": [
                {
                    "internalType": "uint256",
                    "name": "",
                    "type": "uint256"
                }
            ],
            "stateMutability": "view",
            "type": "function"
        },
        {
            "inputs": [],
            "name": "subjectFeePercent",
            "outputs": [
                {
                    "internalType": "uint256",
                    "name": "",
                    "type": "uint256"
                }
            ],
            "stateMutability": "view",
            "type": "function"
        },
        {
            "inputs": [
                {
                    "internalType": "address",
                    "name": "newOwner",
                    "type": "address"
                }
            ],
            "name": "transferOwnership",
            "outputs": [],
            "stateMutability": "nonpayable",
            "type": "function"
        }
    ],
    "bytecode": "608060405234801561001057600080fd5b5061001a33610041565b600180546001600160a01b0319163317905566b1a2bc2ec500006002819055600355610091565b600080546001600160a01b038381166001600160a01b0319831681178455604051919092169283917f8be0079c531659141344cd1fd0a4f28419497f9722a3daafe3b4186f6b6457e09190a35050565b6114ac806100a06000396000f3fe60806040526004361061014b5760003560e01c806399a651f7116100b6578063deb548951161006f578063deb54895146103b2578063deb7e6b3146103d2578063ee103d57146103f2578063f2fde38b1461041f578063f9931be01461043f578063fbe532341461046c57600080fd5b806399a651f7146102e45780639ae7178114610304578063a063cd8314610324578063a49834211461035c578063b51d05341461037c578063d6e6eb9f1461039c57600080fd5b80635a8a764e116101085780635a8a764e146102495780635cf4ee911461026b5780636945b1231461028b578063715018a61461029e5780637a9f9f0c146102b35780638da5cb5b146102c657600080fd5b8063020235ff146101505780630f026f6d1461019b5780632267a89c146101bb57806324dc441d146101db5780634635256e146101f15780634ce7957c14610211575b600080fd5b34801561015c57600080fd5b5061018861016b3660046112cc565b600460209081526000928352604080842090915290825290205481565b6040519081526020015b60405180910390f35b3480156101a757600080fd5b506101886101b63660046112ff565b61048c565b3480156101c757600080fd5b506101886101d63660046112ff565b61050b565b3480156101e757600080fd5b5061018860035481565b3480156101fd57600080fd5b5061018861020c3660046112ff565b610578565b34801561021d57600080fd5b50600154610231906001600160a01b031681565b6040516001600160a01b039091168152602001610192565b34801561025557600080fd5b50610269610264366004611329565b6105a2565b005b34801561027757600080fd5b50610188610286366004611342565b6105af565b6102696102993660046112ff565b6106c6565b3480156102aa57600080fd5b50610269610996565b6102696102c13660046112ff565b6109aa565b3480156102d257600080fd5b506000546001600160a01b0316610231565b3480156102f057600080fd5b506101886102ff3660046112ff565b610bd0565b34801561031057600080fd5b5061018861031f3660046112ff565b610bfd565b34801561033057600080fd5b5061018861033f3660046112cc565b600660209081526000928352604080842090915290825290205481565b34801561036857600080fd5b50610269610377366004611329565b610c24565b34801561038857600080fd5b506102696103973660046112ff565b610c31565b3480156103a857600080fd5b5061018860025481565b3480156103be57600080fd5b506101886103cd3660046112ff565b610e9d565b3480156103de57600080fd5b506102696103ed3660046112ff565b610ec0565b3480156103fe57600080fd5b5061018861040d366004611364565b60076020526000908152604090205481565b34801561042b57600080fd5b5061026961043a366004611364565b611133565b34801561044b57600080fd5b5061018861045a366004611364565b60056020526000908152604090205481565b34801561047857600080fd5b50610269610487366004611364565b6111ac565b6000806104998484610578565b905060006104c4670de0b6b3a76400006104be600254856111d690919063ffffffff16565b906111e2565b905060006104e9670de0b6b3a76400006104be600354866111d690919063ffffffff16565b90506104ff816104f985856111ee565b906111ee565b93505050505b92915050565b6000806105188484610bfd565b9050600061053d670de0b6b3a76400006104be600254856111d690919063ffffffff16565b90506000610562670de0b6b3a76400006104be600354866111d690919063ffffffff16565b90506104ff8161057285856111fa565b906111fa565b6001600160a01b03821660009081526005602052604081205461059b90836105af565b9392505050565b6105aa611206565b600355565b600080831561060a5760066105c5600186611395565b6105d09060026113a8565b6105db9060016113bf565b856105e7600182611395565b6105f191906113a8565b6105fb91906113a8565b61060591906113d2565b61060d565b60005b905060008415801561061f5750836001145b61069457600684610631600188611395565b61063b91906113bf565b6106469060026113a8565b6106519060016113bf565b61065b86886113bf565b8661066760018a611395565b61067191906113bf565b61067b91906113a8565b61068591906113a8565b61068f91906113d2565b610697565b60005b905060006106a58383611395565b9050613e806106bc82670de0b6b3a76400006113a8565b6104ff91906113d2565b6001600160a01b038216600090815260056020526040902054801515806106f557506001600160a01b03831633145b61075f5760405162461bcd60e51b815260206004820152603060248201527f4f6e6c79207468652073686172657327207375626a6563742063616e2062757960448201526f2074686520666972737420736861726560801b60648201526084015b60405180910390fd5b600061076b8484610578565b90506000610790670de0b6b3a76400006104be600254856111d690919063ffffffff16565b905060006107b5670de0b6b3a76400006104be600354866111d690919063ffffffff16565b905060006107c7826104f986866111ee565b9050803410156108105760405162461bcd60e51b8152602060048201526014602482015273125b9cdd59999a58da595b9d081c185e5b595b9d60621b6044820152606401610756565b8034111561085757600061082434836111fa565b604051909150339082156108fc029083906000818181858888f19350505050158015610854573d6000803e3d6000fd5b50505b6001600160a01b038716600090815260046020908152604080832033845290915290205461088590876111ee565b6001600160a01b03881660009081526004602090815260408083203384529091529020556108b385876111ee565b6001600160a01b0388166000908152600560205260409020557f2c76e7a47fd53e2854856ac3f0a5f3ee40d15cfaa82266357ea9779c486ab9c333886001898888886108ff8d856111ee565b6040516109139897969594939291906113f4565b60405180910390a16001546040516001600160a01b039091169084156108fc029085906000818181858888f19350505050158015610955573d6000803e3d6000fd5b506040516001600160a01b0388169083156108fc029084906000818181858888f1935050505015801561098c573d6000803e3d6000fd5b5050505050505050565b61099e611206565b6109a86000611260565b565b60006109b68383610e9d565b905060006109db670de0b6b3a76400006104be600254856111d690919063ffffffff16565b90506000610a00670de0b6b3a76400006104be600354866111d690919063ffffffff16565b90506000610a12826104f986866111ee565b905080341015610a5b5760405162461bcd60e51b8152602060048201526014602482015273125b9cdd59999a58da595b9d081c185e5b595b9d60621b6044820152606401610756565b80341115610aa2576000610a6f34836111fa565b604051909150339082156108fc029083906000818181858888f19350505050158015610a9f573d6000803e3d6000fd5b50505b3360009081526006602090815260408083206001600160a01b038a168452909152902054610ad090866111ee565b3360009081526006602090815260408083206001600160a01b038b168452825280832093909355600790522054610b0790866111ee565b6001600160a01b0387166000908152600760205260409020557fb8c02c9b6022321deeff3e7fcd52e0b6d7ed114dd077c72304d5a8016bc65800338760018888610b5189896111ee565b6001600160a01b038d1660009081526007602052604090819020549051610b7e9796959493929190611438565b60405180910390a16001546001600160a01b03166108fc610b9f85856111ee565b6040518115909202916000818181858888f19350505050158015610bc7573d6000803e3d6000fd5b50505050505050565b6001600160a01b03821660009081526007602052604081205461059b90610bf790846111fa565b836105af565b6001600160a01b03821660009081526005602052604081205461059b90610bf790846111fa565b610c2c611206565b600255565b6001600160a01b038216600090815260056020526040902054818111610c995760405162461bcd60e51b815260206004820152601a60248201527f43616e6e6f742073656c6c20746865206c6173742073686172650000000000006044820152606401610756565b6001600160a01b0383166000908152600460209081526040808320338452909152902054821115610d025760405162461bcd60e51b8152602060048201526013602482015272496e73756666696369656e742073686172657360681b6044820152606401610756565b6000610d0e8484610bfd565b90506000610d33670de0b6b3a76400006104be600254856111d690919063ffffffff16565b90506000610d58670de0b6b3a76400006104be600354866111d690919063ffffffff16565b90506000610d6a8261057286866111fa565b6001600160a01b0388166000908152600460209081526040808320338452909152902054909150610d9b90876111fa565b6001600160a01b0388166000908152600460209081526040808320338452909152902055610dc985876111fa565b6001600160a01b0388166000908152600560205260408120919091557f2c76e7a47fd53e2854856ac3f0a5f3ee40d15cfaa82266357ea9779c486ab9c3903390899089888888610e198d856111fa565b604051610e2d9897969594939291906113f4565b60405180910390a1604051339082156108fc029083906000818181858888f19350505050158015610e62573d6000803e3d6000fd5b506001546040516001600160a01b039091169084156108fc029085906000818181858888f19350505050158015610955573d6000803e3d6000fd5b6001600160a01b03821660009081526007602052604081205461059b90836105af565b3360009081526006602090815260408083206001600160a01b0386168452909152902054811115610f295760405162461bcd60e51b8152602060048201526013602482015272496e73756666696369656e742073686172657360681b6044820152606401610756565b6001600160a01b038216600090815260076020526040812054610f4c90836111fa565b11610f995760405162461bcd60e51b815260206004820152601960248201527f4c6173742073686172652063616e6e6f7420626520736f6c64000000000000006044820152606401610756565b6000610fa58383610bd0565b90506000610fca670de0b6b3a76400006104be600254856111d690919063ffffffff16565b90506000610fef670de0b6b3a76400006104be600354866111d690919063ffffffff16565b905060006110018261057286866111fa565b3360009081526006602090815260408083206001600160a01b038b16845290915290205490915061103290866111fa565b3360009081526006602090815260408083206001600160a01b038b16845282528083209390935560079052205461106990866111fa565b6001600160a01b0387166000908152600760205260408120919091557fb8c02c9b6022321deeff3e7fcd52e0b6d7ed114dd077c72304d5a8016bc65800903390889088886110b789896111ee565b6001600160a01b038d16600090815260076020526040908190205490516110e49796959493929190611438565b60405180910390a1604051339082156108fc029083906000818181858888f19350505050158015611119573d6000803e3d6000fd5b506001546001600160a01b03166108fc610b9f85856111ee565b61113b611206565b6001600160a01b0381166111a05760405162461bcd60e51b815260206004820152602660248201527f4f776e61626c653a206e6577206f776e657220697320746865207a65726f206160448201526564647265737360d01b6064820152608401610756565b6111a981611260565b50565b6111b4611206565b600180546001600160a01b0319166001600160a01b0392909216919091179055565b600061059b82846113a8565b600061059b82846113d2565b600061059b82846113bf565b600061059b8284611395565b6000546001600160a01b031633146109a85760405162461bcd60e51b815260206004820181905260248201527f4f776e61626c653a2063616c6c6572206973206e6f7420746865206f776e65726044820152606401610756565b600080546001600160a01b038381166001600160a01b0319831681178455604051919092169283917f8be0079c531659141344cd1fd0a4f28419497f9722a3daafe3b4186f6b6457e09190a35050565b80356001600160a01b03811681146112c757600080fd5b919050565b600080604083850312156112df57600080fd5b6112e8836112b0565b91506112f6602084016112b0565b90509250929050565b6000806040838503121561131257600080fd5b61131b836112b0565b946020939093013593505050565b60006020828403121561133b57600080fd5b5035919050565b6000806040838503121561135557600080fd5b50508035926020909101359150565b60006020828403121561137657600080fd5b61059b826112b0565b634e487b7160e01b600052601160045260246000fd5b818103818111156105055761050561137f565b80820281158282048414176105055761050561137f565b808201808211156105055761050561137f565b6000826113ef57634e487b7160e01b600052601260045260246000fd5b500490565b6001600160a01b03988916815296909716602087015293151560408601526060850192909252608084015260a083015260c082015260e08101919091526101000190565b6001600160a01b03978816815295909616602086015292151560408501526060840191909152608083015260a082015260c081019190915260e0019056fea26469706673582212209dcfef3e328d1743a08e84916946a6ad81b36a1eee425bada2b750128b4c87f064736f6c63430008130033",
    "sourcePath": "c:/Users/welic/Documents/desodex/contracts/KeySeaV1.sol",
    "compiler": {
        "name": "solc",
        "version": "0.8.19+commit.7dd6d404"
    },
    "functionHashes": {
        "buyFanShares(address,uint256)": "7a9f9f0c",
        "buyShares(address,uint256)": "6945b123",
        "fanSharesBalance(address,address)": "a063cd83",
        "fanSharesSupply(address)": "ee103d57",
        "getBuyPrice(address,uint256)": "4635256e",
        "getBuyPriceAfterFee(address,uint256)": "0f026f6d",
        "getFanBuyPrice(address,uint256)": "deb54895",
        "getFanSellPrice(address,uint256)": "99a651f7",
        "getPrice(uint256,uint256)": "5cf4ee91",
        "getSellPrice(address,uint256)": "9ae71781",
        "getSellPriceAfterFee(address,uint256)": "2267a89c",
        "owner()": "8da5cb5b",
        "protocolFeeDestination()": "4ce7957c",
        "protocolFeePercent()": "d6e6eb9f",
        "renounceOwnership()": "715018a6",
        "sellFanShares(address,uint256)": "deb7e6b3",
        "sellShares(address,uint256)": "b51d0534",
        "setFeeDestination(address)": "fbe53234",
        "setProtocolFeePercent(uint256)": "a4983421",
        "setSubjectFeePercent(uint256)": "5a8a764e",
        "sharesBalance(address,address)": "020235ff",
        "sharesSupply(address)": "f9931be0",
        "subjectFeePercent()": "24dc441d",
        "transferOwnership(address)": "f2fde38b"
    },
    "gasEstimates": {
        "creation": {
            "codeDepositCost": "1058400",
            "executionCost": "95391",
            "totalCost": "1153791"
        },
        "external": {
            "buyFanShares(address,uint256)": "infinite",
            "buyShares(address,uint256)": "infinite",
            "fanSharesBalance(address,address)": "infinite",
            "fanSharesSupply(address)": "2574",
            "getBuyPrice(address,uint256)": "infinite",
            "getBuyPriceAfterFee(address,uint256)": "infinite",
            "getFanBuyPrice(address,uint256)": "infinite",
            "getFanSellPrice(address,uint256)": "infinite",
            "getPrice(uint256,uint256)": "infinite",
            "getSellPrice(address,uint256)": "infinite",
            "getSellPriceAfterFee(address,uint256)": "infinite",
            "owner()": "2464",
            "protocolFeeDestination()": "2471",
            "protocolFeePercent()": "2417",
            "renounceOwnership()": "infinite",
            "sellFanShares(address,uint256)": "infinite",
            "sellShares(address,uint256)": "infinite",
            "setFeeDestination(address)": "26867",
            "setProtocolFeePercent(uint256)": "24577",
            "setSubjectFeePercent(uint256)": "24511",
            "sharesBalance(address,address)": "infinite",
            "sharesSupply(address)": "2618",
            "subjectFeePercent()": "2374",
            "transferOwnership(address)": "28421"
        }
    }
}